{
  "contractName": "base_contract",
  "abi": [
    {
      "inputs": [],
      "payable": false,
      "stateMutability": "nonpayable",
      "type": "constructor"
    },
    {
      "constant": false,
      "inputs": [],
      "name": "disableContract",
      "outputs": [],
      "payable": false,
      "stateMutability": "nonpayable",
      "type": "function"
    },
    {
      "constant": false,
      "inputs": [
        {
          "internalType": "uint256",
          "name": "contestantId",
          "type": "uint256"
        },
        {
          "internalType": "address",
          "name": "contestantAddress",
          "type": "address"
        }
      ],
      "name": "addContestants",
      "outputs": [],
      "payable": false,
      "stateMutability": "nonpayable",
      "type": "function"
    },
    {
      "constant": false,
      "inputs": [
        {
          "internalType": "uint256",
          "name": "contestantId",
          "type": "uint256"
        },
        {
          "internalType": "uint256",
          "name": "voterAadharNo",
          "type": "uint256"
        }
      ],
      "name": "voteFor",
      "outputs": [],
      "payable": false,
      "stateMutability": "nonpayable",
      "type": "function"
    }
  ],
  "bytecode": "0x60806040526000600460006101000a81548160ff02191690831515021790555034801561002b57600080fd5b50336000806101000a81548173ffffffffffffffffffffffffffffffffffffffff021916908373ffffffffffffffffffffffffffffffffffffffff16021790555061054f8061007b6000396000f3fe608060405234801561001057600080fd5b50600436106100405760003560e01c8062c2b78e1461004557806347155b8a1461007d578063894ba833146100cb575b600080fd5b61007b6004803603604081101561005b57600080fd5b8101908080359060200190929190803590602001909291905050506100d5565b005b6100c96004803603604081101561009357600080fd5b8101908080359060200190929190803573ffffffffffffffffffffffffffffffffffffffff169060200190929190505050610227565b005b6100d36103ab565b005b60001515600460009054906101000a900460ff1615151461015e576040517f08c379a000000000000000000000000000000000000000000000000000000000815260040180806020018281038252601c8152602001807f436f6e747261637420697320616c72656164792073757370656465640000000081525060200191505060405180910390fd5b6001600360006002600086815260200190815260200160002060009054906101000a900473ffffffffffffffffffffffffffffffffffffffff1673ffffffffffffffffffffffffffffffffffffffff1673ffffffffffffffffffffffffffffffffffffffff1681526020019081526020016000206000828254019250508190555080600160003373ffffffffffffffffffffffffffffffffffffffff1673ffffffffffffffffffffffffffffffffffffffff168152602001908152602001600020819055505050565b6000809054906101000a900473ffffffffffffffffffffffffffffffffffffffff1673ffffffffffffffffffffffffffffffffffffffff163373ffffffffffffffffffffffffffffffffffffffff16146102cc576040517f08c379a00000000000000000000000000000000000000000000000000000000081526004018080602001828103825260248152602001806104f76024913960400191505060405180910390fd5b60001515600460009054906101000a900460ff16151514610355576040517f08c379a000000000000000000000000000000000000000000000000000000000815260040180806020018281038252601c8152602001807f436f6e747261637420697320616c72656164792073757370656465640000000081525060200191505060405180910390fd5b806002600084815260200190815260200160002060006101000a81548173ffffffffffffffffffffffffffffffffffffffff021916908373ffffffffffffffffffffffffffffffffffffffff1602179055505050565b6000809054906101000a900473ffffffffffffffffffffffffffffffffffffffff1673ffffffffffffffffffffffffffffffffffffffff163373ffffffffffffffffffffffffffffffffffffffff1614610450576040517f08c379a00000000000000000000000000000000000000000000000000000000081526004018080602001828103825260248152602001806104f76024913960400191505060405180910390fd5b60001515600460009054906101000a900460ff161515146104d9576040517f08c379a000000000000000000000000000000000000000000000000000000000815260040180806020018281038252601c8152602001807f436f6e747261637420697320616c72656164792073757370656465640000000081525060200191505060405180910390fd5b6001600460006101000a81548160ff02191690831515021790555056fe4f6e6c79206f776e65722063616e20706572666f726d2074686973207265616374696f6ea265627a7a723158205336df9479d13cff82e81845a4a849850b5dca6cd73b029416954c0494feb65764736f6c63430005100032",
  "source": "\npragma solidity >=0.4.22 <0.8.0;\n\ncontract base_contract{\n  address owner;\n  constructor() public {\n    owner=msg.sender;\n  }\n  mapping(address=>uint256) voterAadhar;\n  mapping(uint256=>address) contestants;\n  mapping(address=>uint256) votes;\n  bool paused=false;\n\n  modifier godMode(){\n    require(msg.sender==owner,\"Only owner can perform this reaction\");\n    _;\n  }\n\n  modifier isContractActive(){\n    require(paused==false,\"Contract is already suspeded\");\n    _;\n  }\n\n  function disableContract() public godMode isContractActive{\n    paused=true;\n  }\n\n  function addContestants(uint contestantId, address contestantAddress) public godMode isContractActive{\n    contestants[contestantId]=contestantAddress;\n  }\n\n  function voteFor(uint contestantId,uint voterAadharNo) public isContractActive{\n    votes[contestants[contestantId]]+=1;\n    voterAadhar[msg.sender]=voterAadharNo;\n  }\n\n\n\n\n}\n",
  "sourcePath": "/home/cipher/Desktop/decentralised_online_voting/contracts/base_contract.sol",
  "compiler": {
    "name": "solc",
    "version": "0.5.16+commit.9c3226ce.Emscripten.clang"
  },
  "schemaVersion": "3.2.0",
  "updatedAt": "2020-09-03T22:22:58.659Z",
  "networkType": "ethereum",
  "devdoc": {
    "methods": {}
  },
  "userdoc": {
    "methods": {}
  }
}