{
  "contractName": "base_contract",
  "abi": [
    {
      "inputs": [],
      "payable": false,
      "stateMutability": "nonpayable",
      "type": "constructor"
    },
    {
      "anonymous": false,
      "inputs": [
        {
          "indexed": false,
          "internalType": "address",
          "name": "contestant",
          "type": "address"
        },
        {
          "indexed": false,
          "internalType": "string",
          "name": "contestantImage",
          "type": "string"
        }
      ],
      "name": "contestantAdded",
      "type": "event"
    },
    {
      "anonymous": false,
      "inputs": [
        {
          "indexed": false,
          "internalType": "address",
          "name": "contestant",
          "type": "address"
        },
        {
          "indexed": false,
          "internalType": "address",
          "name": "voter",
          "type": "address"
        },
        {
          "indexed": false,
          "internalType": "uint256",
          "name": "currentVoteCount",
          "type": "uint256"
        }
      ],
      "name": "voted",
      "type": "event"
    },
    {
      "constant": true,
      "inputs": [
        {
          "internalType": "address",
          "name": "",
          "type": "address"
        }
      ],
      "name": "votes",
      "outputs": [
        {
          "internalType": "uint256",
          "name": "",
          "type": "uint256"
        }
      ],
      "payable": false,
      "stateMutability": "view",
      "type": "function"
    },
    {
      "constant": false,
      "inputs": [],
      "name": "disableContract",
      "outputs": [],
      "payable": false,
      "stateMutability": "nonpayable",
      "type": "function"
    },
    {
      "constant": true,
      "inputs": [],
      "name": "contractStatus",
      "outputs": [
        {
          "internalType": "bool",
          "name": "",
          "type": "bool"
        }
      ],
      "payable": false,
      "stateMutability": "view",
      "type": "function"
    },
    {
      "constant": false,
      "inputs": [
        {
          "internalType": "uint256",
          "name": "contestantId",
          "type": "uint256"
        },
        {
          "internalType": "address",
          "name": "contestantAddress",
          "type": "address"
        },
        {
          "internalType": "string",
          "name": "image",
          "type": "string"
        }
      ],
      "name": "addContestants",
      "outputs": [],
      "payable": false,
      "stateMutability": "nonpayable",
      "type": "function"
    },
    {
      "constant": false,
      "inputs": [
        {
          "internalType": "uint256",
          "name": "contestantId",
          "type": "uint256"
        },
        {
          "internalType": "uint256",
          "name": "voterAadharNo",
          "type": "uint256"
        }
      ],
      "name": "voteFor",
      "outputs": [],
      "payable": false,
      "stateMutability": "nonpayable",
      "type": "function"
    }
  ],
  "bytecode": "0x60806040526000600560006101000a81548160ff02191690831515021790555034801561002b57600080fd5b50336000806101000a81548173ffffffffffffffffffffffffffffffffffffffff021916908373ffffffffffffffffffffffffffffffffffffffff1602179055506109b88061007b6000396000f3fe608060405234801561001057600080fd5b50600436106100565760003560e01c8062c2b78e1461005b578063894ba83314610093578063bbb7df631461009d578063c6ee20d214610182578063d8bff5a5146101a4575b600080fd5b6100916004803603604081101561007157600080fd5b8101908080359060200190929190803590602001909291905050506101fc565b005b61009b610492565b005b610180600480360360608110156100b357600080fd5b8101908080359060200190929190803573ffffffffffffffffffffffffffffffffffffffff169060200190929190803590602001906401000000008111156100fa57600080fd5b82018360208201111561010c57600080fd5b8035906020019184600183028401116401000000008311171561012e57600080fd5b91908080601f016020809104026020016040519081016040528093929190818152602001838380828437600081840152601f19601f8201169050808301925050505050505091929192905050506105dd565b005b61018a61088d565b604051808215151515815260200191505060405180910390f35b6101e6600480360360208110156101ba57600080fd5b81019080803573ffffffffffffffffffffffffffffffffffffffff1690602001909291905050506108a4565b6040518082815260200191505060405180910390f35b60001515600560009054906101000a900460ff16151514610285576040517f08c379a000000000000000000000000000000000000000000000000000000000815260040180806020018281038252601c8152602001807f436f6e747261637420697320616c72656164792073757370656465640000000081525060200191505060405180910390fd5b6001600360006002600086815260200190815260200160002060009054906101000a900473ffffffffffffffffffffffffffffffffffffffff1673ffffffffffffffffffffffffffffffffffffffff1673ffffffffffffffffffffffffffffffffffffffff1681526020019081526020016000206000828254019250508190555080600160003373ffffffffffffffffffffffffffffffffffffffff1673ffffffffffffffffffffffffffffffffffffffff168152602001908152602001600020819055507f9df1db5c4300ffb6c360aa6a41d9a19de3d9ab685fb2fff2782a64204e8d7f436002600084815260200190815260200160002060009054906101000a900473ffffffffffffffffffffffffffffffffffffffff1633600360006002600088815260200190815260200160002060009054906101000a900473ffffffffffffffffffffffffffffffffffffffff1673ffffffffffffffffffffffffffffffffffffffff1673ffffffffffffffffffffffffffffffffffffffff16815260200190815260200160002054604051808473ffffffffffffffffffffffffffffffffffffffff1673ffffffffffffffffffffffffffffffffffffffff1681526020018373ffffffffffffffffffffffffffffffffffffffff1673ffffffffffffffffffffffffffffffffffffffff168152602001828152602001935050505060405180910390a15050565b6000809054906101000a900473ffffffffffffffffffffffffffffffffffffffff1673ffffffffffffffffffffffffffffffffffffffff163373ffffffffffffffffffffffffffffffffffffffff1614610537576040517f08c379a00000000000000000000000000000000000000000000000000000000081526004018080602001828103825260228152602001806109626022913960400191505060405180910390fd5b60001515600560009054906101000a900460ff161515146105c0576040517f08c379a000000000000000000000000000000000000000000000000000000000815260040180806020018281038252601c8152602001807f436f6e747261637420697320616c72656164792073757370656465640000000081525060200191505060405180910390fd5b6001600560006101000a81548160ff021916908315150217905550565b6000809054906101000a900473ffffffffffffffffffffffffffffffffffffffff1673ffffffffffffffffffffffffffffffffffffffff163373ffffffffffffffffffffffffffffffffffffffff1614610682576040517f08c379a00000000000000000000000000000000000000000000000000000000081526004018080602001828103825260228152602001806109626022913960400191505060405180910390fd5b60001515600560009054906101000a900460ff1615151461070b576040517f08c379a000000000000000000000000000000000000000000000000000000000815260040180806020018281038252601c8152602001807f436f6e747261637420697320616c72656164792073757370656465640000000081525060200191505060405180910390fd5b816002600085815260200190815260200160002060006101000a81548173ffffffffffffffffffffffffffffffffffffffff021916908373ffffffffffffffffffffffffffffffffffffffff160217905550806004600085815260200190815260200160002090805190602001906107849291906108bc565b507f60e36030cf13fe547619cad30b46535ed4419aef2451cde3c7e42e9efd45a6576002600085815260200190815260200160002060009054906101000a900473ffffffffffffffffffffffffffffffffffffffff1682604051808373ffffffffffffffffffffffffffffffffffffffff1673ffffffffffffffffffffffffffffffffffffffff16815260200180602001828103825283818151815260200191508051906020019080838360005b8381101561084d578082015181840152602081019050610832565b50505050905090810190601f16801561087a5780820380516001836020036101000a031916815260200191505b50935050505060405180910390a1505050565b6000600560009054906101000a900460ff16905090565b60036020528060005260406000206000915090505481565b828054600181600116156101000203166002900490600052602060002090601f016020900481019282601f106108fd57805160ff191683800117855561092b565b8280016001018555821561092b579182015b8281111561092a57825182559160200191906001019061090f565b5b509050610938919061093c565b5090565b61095e91905b8082111561095a576000816000905550600101610942565b5090565b9056fe4f6e6c79206f776e65722063616e20706572666f726d207468697320616374696f6ea265627a7a72315820d7cbf19cf7a60dd2fa82c7f48c6a01e4692ce9f2710e2c20dd3b06c8db66fd3c64736f6c63430005100032",
  "source": "\npragma solidity >=0.4.22 <0.8.0;\n\ncontract base_contract{\n  address owner;\n  constructor() public {\n    owner=msg.sender;\n  }\n  mapping(address=>uint256) voterAadhar;\n  mapping(uint256=>address) contestants;\n  mapping(address=>uint256) public votes;\n  mapping(uint256=>string) private contestantImage;\n  event contestantAdded(address contestant,string contestantImage);\n  event voted(address contestant, address voter, uint256 currentVoteCount);\n\n  bool paused=false;\n\n  modifier godMode(){\n    require(msg.sender==owner,\"Only owner can perform this action\");\n    _;\n  }\n\n  modifier isContractActive(){\n    require(paused==false,\"Contract is already suspeded\");\n    _;\n  }\n\n  function disableContract() public godMode isContractActive{\n    paused=true;\n  }\n\n  function contractStatus() public view returns (bool){\n    return paused;\n  }\n\n  function addContestants(uint contestantId, address contestantAddress, string memory image) public godMode isContractActive{\n    contestants[contestantId]=contestantAddress;\n    contestantImage[contestantId]=image;\n    emit contestantAdded(contestants[contestantId],image);\n  }\n\n  function voteFor(uint contestantId,uint voterAadharNo) public isContractActive{\n    votes[contestants[contestantId]]+=1;\n    voterAadhar[msg.sender]=voterAadharNo;\n    emit voted(contestants[contestantId],msg.sender,votes[contestants[contestantId]]);\n  }\n\n\n\n\n}\n",
  "sourcePath": "/home/cipher/Desktop/decentralised_online_voting/contracts/base_contract.sol",
  "compiler": {
    "name": "solc",
    "version": "0.5.16+commit.9c3226ce.Emscripten.clang"
  },
  "schemaVersion": "3.2.0",
  "updatedAt": "2020-09-28T20:54:07.646Z",
  "networkType": "ethereum",
  "devdoc": {
    "methods": {}
  },
  "userdoc": {
    "methods": {}
  }
}