{
  "contractName": "base_contract",
  "abi": [
    {
      "inputs": [],
      "payable": false,
      "stateMutability": "nonpayable",
      "type": "constructor"
    },
    {
      "anonymous": false,
      "inputs": [
        {
          "indexed": false,
          "internalType": "address",
          "name": "contestant",
          "type": "address"
        }
      ],
      "name": "contestantAdded",
      "type": "event"
    },
    {
      "anonymous": false,
      "inputs": [
        {
          "indexed": false,
          "internalType": "address",
          "name": "contestant",
          "type": "address"
        },
        {
          "indexed": false,
          "internalType": "address",
          "name": "voter",
          "type": "address"
        },
        {
          "indexed": false,
          "internalType": "uint256",
          "name": "currentVoteCount",
          "type": "uint256"
        }
      ],
      "name": "voted",
      "type": "event"
    },
    {
      "constant": false,
      "inputs": [],
      "name": "disableContract",
      "outputs": [],
      "payable": false,
      "stateMutability": "nonpayable",
      "type": "function"
    },
    {
      "constant": true,
      "inputs": [],
      "name": "contractStatus",
      "outputs": [
        {
          "internalType": "bool",
          "name": "",
          "type": "bool"
        }
      ],
      "payable": false,
      "stateMutability": "view",
      "type": "function"
    },
    {
      "constant": false,
      "inputs": [
        {
          "internalType": "uint256",
          "name": "contestantId",
          "type": "uint256"
        },
        {
          "internalType": "address",
          "name": "contestantAddress",
          "type": "address"
        }
      ],
      "name": "addContestants",
      "outputs": [],
      "payable": false,
      "stateMutability": "nonpayable",
      "type": "function"
    },
    {
      "constant": false,
      "inputs": [
        {
          "internalType": "uint256",
          "name": "contestantId",
          "type": "uint256"
        },
        {
          "internalType": "uint256",
          "name": "voterAadharNo",
          "type": "uint256"
        }
      ],
      "name": "voteFor",
      "outputs": [],
      "payable": false,
      "stateMutability": "nonpayable",
      "type": "function"
    }
  ],
  "bytecode": "0x60806040526000600460006101000a81548160ff02191690831515021790555034801561002b57600080fd5b50336000806101000a81548173ffffffffffffffffffffffffffffffffffffffff021916908373ffffffffffffffffffffffffffffffffffffffff16021790555061076b8061007b6000396000f3fe608060405234801561001057600080fd5b506004361061004b5760003560e01c8062c2b78e1461005057806347155b8a14610088578063894ba833146100d6578063c6ee20d2146100e0575b600080fd5b6100866004803603604081101561006657600080fd5b810190808035906020019092919080359060200190929190505050610102565b005b6100d46004803603604081101561009e57600080fd5b8101908080359060200190929190803573ffffffffffffffffffffffffffffffffffffffff169060200190929190505050610398565b005b6100de6105b2565b005b6100e86106fd565b604051808215151515815260200191505060405180910390f35b60001515600460009054906101000a900460ff1615151461018b576040517f08c379a000000000000000000000000000000000000000000000000000000000815260040180806020018281038252601c8152602001807f436f6e747261637420697320616c72656164792073757370656465640000000081525060200191505060405180910390fd5b6001600360006002600086815260200190815260200160002060009054906101000a900473ffffffffffffffffffffffffffffffffffffffff1673ffffffffffffffffffffffffffffffffffffffff1673ffffffffffffffffffffffffffffffffffffffff1681526020019081526020016000206000828254019250508190555080600160003373ffffffffffffffffffffffffffffffffffffffff1673ffffffffffffffffffffffffffffffffffffffff168152602001908152602001600020819055507f9df1db5c4300ffb6c360aa6a41d9a19de3d9ab685fb2fff2782a64204e8d7f436002600084815260200190815260200160002060009054906101000a900473ffffffffffffffffffffffffffffffffffffffff1633600360006002600088815260200190815260200160002060009054906101000a900473ffffffffffffffffffffffffffffffffffffffff1673ffffffffffffffffffffffffffffffffffffffff1673ffffffffffffffffffffffffffffffffffffffff16815260200190815260200160002054604051808473ffffffffffffffffffffffffffffffffffffffff1673ffffffffffffffffffffffffffffffffffffffff1681526020018373ffffffffffffffffffffffffffffffffffffffff1673ffffffffffffffffffffffffffffffffffffffff168152602001828152602001935050505060405180910390a15050565b6000809054906101000a900473ffffffffffffffffffffffffffffffffffffffff1673ffffffffffffffffffffffffffffffffffffffff163373ffffffffffffffffffffffffffffffffffffffff161461043d576040517f08c379a00000000000000000000000000000000000000000000000000000000081526004018080602001828103825260228152602001806107156022913960400191505060405180910390fd5b60001515600460009054906101000a900460ff161515146104c6576040517f08c379a000000000000000000000000000000000000000000000000000000000815260040180806020018281038252601c8152602001807f436f6e747261637420697320616c72656164792073757370656465640000000081525060200191505060405180910390fd5b806002600084815260200190815260200160002060006101000a81548173ffffffffffffffffffffffffffffffffffffffff021916908373ffffffffffffffffffffffffffffffffffffffff1602179055507f27f04287c0c594cf692d20d08df7add10501347b417d525d8bef6d73805499416002600084815260200190815260200160002060009054906101000a900473ffffffffffffffffffffffffffffffffffffffff16604051808273ffffffffffffffffffffffffffffffffffffffff1673ffffffffffffffffffffffffffffffffffffffff16815260200191505060405180910390a15050565b6000809054906101000a900473ffffffffffffffffffffffffffffffffffffffff1673ffffffffffffffffffffffffffffffffffffffff163373ffffffffffffffffffffffffffffffffffffffff1614610657576040517f08c379a00000000000000000000000000000000000000000000000000000000081526004018080602001828103825260228152602001806107156022913960400191505060405180910390fd5b60001515600460009054906101000a900460ff161515146106e0576040517f08c379a000000000000000000000000000000000000000000000000000000000815260040180806020018281038252601c8152602001807f436f6e747261637420697320616c72656164792073757370656465640000000081525060200191505060405180910390fd5b6001600460006101000a81548160ff021916908315150217905550565b6000600460009054906101000a900460ff1690509056fe4f6e6c79206f776e65722063616e20706572666f726d207468697320616374696f6ea265627a7a72315820973f5a56b0cb7b9197c29e318690dee46682ec331d1e8e174761f76f400d2bd264736f6c63430005100032",
  "source": "\npragma solidity >=0.4.22 <0.8.0;\n\ncontract base_contract{\n  address owner;\n  constructor() public {\n    owner=msg.sender;\n  }\n  mapping(address=>uint256) voterAadhar;\n  mapping(uint256=>address) contestants;\n  mapping(address=>uint256) votes;\n  event contestantAdded(address contestant);\n  event voted(address contestant, address voter, uint256 currentVoteCount);\n\n  bool paused=false;\n\n  modifier godMode(){\n    require(msg.sender==owner,\"Only owner can perform this action\");\n    _;\n  }\n\n  modifier isContractActive(){\n    require(paused==false,\"Contract is already suspeded\");\n    _;\n  }\n\n  function disableContract() public godMode isContractActive{\n    paused=true;\n  }\n\n  function contractStatus() public view returns (bool){\n    return paused;\n  }\n\n  function addContestants(uint contestantId, address contestantAddress) public godMode isContractActive{\n    contestants[contestantId]=contestantAddress;\n    emit contestantAdded(contestants[contestantId]);\n  }\n\n  function voteFor(uint contestantId,uint voterAadharNo) public isContractActive{\n    votes[contestants[contestantId]]+=1;\n    voterAadhar[msg.sender]=voterAadharNo;\n    emit voted(contestants[contestantId],msg.sender,votes[contestants[contestantId]]);\n  }\n\n\n\n\n}\n",
  "sourcePath": "/home/cipher/Desktop/decentralised_online_voting/contracts/base_contract.sol",
  "compiler": {
    "name": "solc",
    "version": "0.5.16+commit.9c3226ce.Emscripten.clang"
  },
  "schemaVersion": "3.2.0",
  "updatedAt": "2020-09-10T23:38:09.958Z",
  "networkType": "ethereum",
  "devdoc": {
    "methods": {}
  },
  "userdoc": {
    "methods": {}
  }
}