{
  "contractName": "base_contract",
  "abi": [
    {
      "inputs": [],
      "payable": false,
      "stateMutability": "nonpayable",
      "type": "constructor"
    },
    {
      "anonymous": false,
      "inputs": [
        {
          "indexed": false,
          "internalType": "address",
          "name": "contestant",
          "type": "address"
        },
        {
          "indexed": false,
          "internalType": "string",
          "name": "contestantImage",
          "type": "string"
        }
      ],
      "name": "contestantAdded",
      "type": "event"
    },
    {
      "anonymous": false,
      "inputs": [
        {
          "indexed": false,
          "internalType": "address",
          "name": "contestant",
          "type": "address"
        },
        {
          "indexed": false,
          "internalType": "address",
          "name": "voter",
          "type": "address"
        },
        {
          "indexed": false,
          "internalType": "uint256",
          "name": "currentVoteCount",
          "type": "uint256"
        }
      ],
      "name": "voted",
      "type": "event"
    },
    {
      "constant": true,
      "inputs": [
        {
          "internalType": "uint256",
          "name": "",
          "type": "uint256"
        }
      ],
      "name": "contestantIds",
      "outputs": [
        {
          "internalType": "uint256",
          "name": "",
          "type": "uint256"
        }
      ],
      "payable": false,
      "stateMutability": "view",
      "type": "function"
    },
    {
      "constant": true,
      "inputs": [
        {
          "internalType": "uint256",
          "name": "",
          "type": "uint256"
        }
      ],
      "name": "contestantImage",
      "outputs": [
        {
          "internalType": "string",
          "name": "",
          "type": "string"
        }
      ],
      "payable": false,
      "stateMutability": "view",
      "type": "function"
    },
    {
      "constant": true,
      "inputs": [
        {
          "internalType": "uint256",
          "name": "",
          "type": "uint256"
        }
      ],
      "name": "contestants",
      "outputs": [
        {
          "internalType": "address",
          "name": "",
          "type": "address"
        }
      ],
      "payable": false,
      "stateMutability": "view",
      "type": "function"
    },
    {
      "constant": true,
      "inputs": [
        {
          "internalType": "address",
          "name": "",
          "type": "address"
        }
      ],
      "name": "voterAadhar",
      "outputs": [
        {
          "internalType": "uint256",
          "name": "",
          "type": "uint256"
        }
      ],
      "payable": false,
      "stateMutability": "view",
      "type": "function"
    },
    {
      "constant": true,
      "inputs": [
        {
          "internalType": "address",
          "name": "",
          "type": "address"
        }
      ],
      "name": "votes",
      "outputs": [
        {
          "internalType": "uint256",
          "name": "",
          "type": "uint256"
        }
      ],
      "payable": false,
      "stateMutability": "view",
      "type": "function"
    },
    {
      "constant": false,
      "inputs": [],
      "name": "disableContract",
      "outputs": [],
      "payable": false,
      "stateMutability": "nonpayable",
      "type": "function"
    },
    {
      "constant": true,
      "inputs": [],
      "name": "contractStatus",
      "outputs": [
        {
          "internalType": "bool",
          "name": "",
          "type": "bool"
        }
      ],
      "payable": false,
      "stateMutability": "view",
      "type": "function"
    },
    {
      "constant": true,
      "inputs": [],
      "name": "getIds",
      "outputs": [
        {
          "internalType": "uint256[]",
          "name": "",
          "type": "uint256[]"
        }
      ],
      "payable": false,
      "stateMutability": "view",
      "type": "function"
    },
    {
      "constant": false,
      "inputs": [
        {
          "internalType": "uint256",
          "name": "contestantId",
          "type": "uint256"
        },
        {
          "internalType": "address",
          "name": "contestantAddress",
          "type": "address"
        },
        {
          "internalType": "string",
          "name": "image",
          "type": "string"
        }
      ],
      "name": "addContestants",
      "outputs": [],
      "payable": false,
      "stateMutability": "nonpayable",
      "type": "function"
    },
    {
      "constant": false,
      "inputs": [
        {
          "internalType": "uint256",
          "name": "contestantId",
          "type": "uint256"
        },
        {
          "internalType": "uint256",
          "name": "voterAadharNo",
          "type": "uint256"
        }
      ],
      "name": "voteFor",
      "outputs": [],
      "payable": false,
      "stateMutability": "nonpayable",
      "type": "function"
    }
  ],
  "bytecode": "0x60806040526000600660006101000a81548160ff02191690831515021790555034801561002b57600080fd5b50336000806101000a81548173ffffffffffffffffffffffffffffffffffffffff021916908373ffffffffffffffffffffffffffffffffffffffff160217905550610dad8061007b6000396000f3fe608060405234801561001057600080fd5b506004361061009d5760003560e01c8063ae4608ae11610066578063ae4608ae14610242578063bbb7df6314610284578063c6ee20d214610369578063d8bff5a51461038b578063dfd50f52146103e35761009d565b8062c2b78e146100a25780632b105663146100da5780634319c327146101395780635e0af0d614610191578063894ba83314610238575b600080fd5b6100d8600480360360408110156100b857600080fd5b810190808035906020019092919080359060200190929190505050610451565b005b6100e26106e7565b6040518080602001828103825283818151815260200191508051906020019060200280838360005b8381101561012557808201518184015260208101905061010a565b505050509050019250505060405180910390f35b61017b6004803603602081101561014f57600080fd5b81019080803573ffffffffffffffffffffffffffffffffffffffff16906020019092919050505061073f565b6040518082815260200191505060405180910390f35b6101bd600480360360208110156101a757600080fd5b8101908080359060200190929190505050610757565b6040518080602001828103825283818151815260200191508051906020019080838360005b838110156101fd5780820151818401526020810190506101e2565b50505050905090810190601f16801561022a5780820380516001836020036101000a031916815260200191505b509250505060405180910390f35b610240610807565b005b61026e6004803603602081101561025857600080fd5b8101908080359060200190929190505050610952565b6040518082815260200191505060405180910390f35b6103676004803603606081101561029a57600080fd5b8101908080359060200190929190803573ffffffffffffffffffffffffffffffffffffffff169060200190929190803590602001906401000000008111156102e157600080fd5b8201836020820111156102f357600080fd5b8035906020019184600183028401116401000000008311171561031557600080fd5b91908080601f016020809104026020016040519081016040528093929190818152602001838380828437600081840152601f19601f820116905080830192505050505050509192919290505050610973565b005b610371610c4f565b604051808215151515815260200191505060405180910390f35b6103cd600480360360208110156103a157600080fd5b81019080803573ffffffffffffffffffffffffffffffffffffffff169060200190929190505050610c66565b6040518082815260200191505060405180910390f35b61040f600480360360208110156103f957600080fd5b8101908080359060200190929190505050610c7e565b604051808273ffffffffffffffffffffffffffffffffffffffff1673ffffffffffffffffffffffffffffffffffffffff16815260200191505060405180910390f35b60001515600660009054906101000a900460ff161515146104da576040517f08c379a000000000000000000000000000000000000000000000000000000000815260040180806020018281038252601c8152602001807f436f6e747261637420697320616c72656164792073757370656465640000000081525060200191505060405180910390fd5b6001600360006002600086815260200190815260200160002060009054906101000a900473ffffffffffffffffffffffffffffffffffffffff1673ffffffffffffffffffffffffffffffffffffffff1673ffffffffffffffffffffffffffffffffffffffff1681526020019081526020016000206000828254019250508190555080600160003373ffffffffffffffffffffffffffffffffffffffff1673ffffffffffffffffffffffffffffffffffffffff168152602001908152602001600020819055507f9df1db5c4300ffb6c360aa6a41d9a19de3d9ab685fb2fff2782a64204e8d7f436002600084815260200190815260200160002060009054906101000a900473ffffffffffffffffffffffffffffffffffffffff1633600360006002600088815260200190815260200160002060009054906101000a900473ffffffffffffffffffffffffffffffffffffffff1673ffffffffffffffffffffffffffffffffffffffff1673ffffffffffffffffffffffffffffffffffffffff16815260200190815260200160002054604051808473ffffffffffffffffffffffffffffffffffffffff1673ffffffffffffffffffffffffffffffffffffffff1681526020018373ffffffffffffffffffffffffffffffffffffffff1673ffffffffffffffffffffffffffffffffffffffff168152602001828152602001935050505060405180910390a15050565b6060600580548060200260200160405190810160405280929190818152602001828054801561073557602002820191906000526020600020905b815481526020019060010190808311610721575b5050505050905090565b60016020528060005260406000206000915090505481565b60046020528060005260406000206000915090508054600181600116156101000203166002900480601f0160208091040260200160405190810160405280929190818152602001828054600181600116156101000203166002900480156107ff5780601f106107d4576101008083540402835291602001916107ff565b820191906000526020600020905b8154815290600101906020018083116107e257829003601f168201915b505050505081565b6000809054906101000a900473ffffffffffffffffffffffffffffffffffffffff1673ffffffffffffffffffffffffffffffffffffffff163373ffffffffffffffffffffffffffffffffffffffff16146108ac576040517f08c379a0000000000000000000000000000000000000000000000000000000008152600401808060200182810382526022815260200180610d576022913960400191505060405180910390fd5b60001515600660009054906101000a900460ff16151514610935576040517f08c379a000000000000000000000000000000000000000000000000000000000815260040180806020018281038252601c8152602001807f436f6e747261637420697320616c72656164792073757370656465640000000081525060200191505060405180910390fd5b6001600660006101000a81548160ff021916908315150217905550565b6005818154811061095f57fe5b906000526020600020016000915090505481565b6000809054906101000a900473ffffffffffffffffffffffffffffffffffffffff1673ffffffffffffffffffffffffffffffffffffffff163373ffffffffffffffffffffffffffffffffffffffff1614610a18576040517f08c379a0000000000000000000000000000000000000000000000000000000008152600401808060200182810382526022815260200180610d576022913960400191505060405180910390fd5b60001515600660009054906101000a900460ff16151514610aa1576040517f08c379a000000000000000000000000000000000000000000000000000000000815260040180806020018281038252601c8152602001807f436f6e747261637420697320616c72656164792073757370656465640000000081525060200191505060405180910390fd5b816002600085815260200190815260200160002060006101000a81548173ffffffffffffffffffffffffffffffffffffffff021916908373ffffffffffffffffffffffffffffffffffffffff16021790555080600460008581526020019081526020016000209080519060200190610b1a929190610cb1565b5060058390806001815401808255809150509060018203906000526020600020016000909192909190915055507f60e36030cf13fe547619cad30b46535ed4419aef2451cde3c7e42e9efd45a6576002600085815260200190815260200160002060009054906101000a900473ffffffffffffffffffffffffffffffffffffffff1682604051808373ffffffffffffffffffffffffffffffffffffffff1673ffffffffffffffffffffffffffffffffffffffff16815260200180602001828103825283818151815260200191508051906020019080838360005b83811015610c0f578082015181840152602081019050610bf4565b50505050905090810190601f168015610c3c5780820380516001836020036101000a031916815260200191505b50935050505060405180910390a1505050565b6000600660009054906101000a900460ff16905090565b60036020528060005260406000206000915090505481565b60026020528060005260406000206000915054906101000a900473ffffffffffffffffffffffffffffffffffffffff1681565b828054600181600116156101000203166002900490600052602060002090601f016020900481019282601f10610cf257805160ff1916838001178555610d20565b82800160010185558215610d20579182015b82811115610d1f578251825591602001919060010190610d04565b5b509050610d2d9190610d31565b5090565b610d5391905b80821115610d4f576000816000905550600101610d37565b5090565b9056fe4f6e6c79206f776e65722063616e20706572666f726d207468697320616374696f6ea265627a7a72315820615ffa052ea9d6da4c892480f842ed7c19cc29ec51ea48f7a5ff5923d7c852e464736f6c63430005100032",
  "source": "\npragma solidity >=0.4.22 <0.8.0;\n\ncontract base_contract{\n  address owner;\n  constructor() public {\n    owner=msg.sender;\n  }\n  mapping(address=>uint256) public voterAadhar;\n  mapping(uint256=>address) public contestants;\n  mapping(address=>uint256) public votes;\n  mapping(uint256=>string) public contestantImage;\n  uint256[] public contestantIds;\n  event contestantAdded(address contestant,string contestantImage);\n  event voted(address contestant, address voter, uint256 currentVoteCount);\n\n  bool paused=false;\n\n  modifier godMode(){\n    require(msg.sender==owner,\"Only owner can perform this action\");\n    _;\n  }\n\n  modifier isContractActive(){\n    require(paused==false,\"Contract is already suspeded\");\n    _;\n  }\n\n  function disableContract() public godMode isContractActive{\n    paused=true;\n  }\n\n  function contractStatus() public view returns (bool){\n    return paused;\n  }\n\n  function getIds() public view returns(uint256[] memory){\n    return contestantIds;\n  }\n\n  function addContestants(uint contestantId, address contestantAddress, string memory image) public godMode isContractActive{\n    contestants[contestantId]=contestantAddress;\n    contestantImage[contestantId]=image;\n    contestantIds.push(contestantId);\n    emit contestantAdded(contestants[contestantId],image);\n  }\n\n  function voteFor(uint contestantId,uint voterAadharNo) public isContractActive{\n    votes[contestants[contestantId]]+=1;\n    voterAadhar[msg.sender]=voterAadharNo;\n    emit voted(contestants[contestantId],msg.sender,votes[contestants[contestantId]]);\n  }\n\n\n\n\n}\n",
  "sourcePath": "/home/cipher/Desktop/decentralised_online_voting/contracts/base_contract.sol",
  "compiler": {
    "name": "solc",
    "version": "0.5.16+commit.9c3226ce.Emscripten.clang"
  },
  "schemaVersion": "3.2.0",
  "updatedAt": "2020-10-11T21:56:01.114Z",
  "networkType": "ethereum",
  "devdoc": {
    "methods": {}
  },
  "userdoc": {
    "methods": {}
  }
}